:100000000C9446000C945D000C945D000C945D0013
:100010000C945D000C94CC010C944D010C94DB000D
:100020000C945F000C945D000C945D000C945D00DA
:100030000C945D000C945D000C945D000C945D00CC
:100040000C945D000C945D000C945D000C945D00BC
:100050000C945D000C945D000C945D000C945D00AC
:100060000C945D000C945D000C945D000C945D009C
:100070000C945D000C945D000C945D000C945D008C
:100080000C945D000C945D000C945D0011241FBE67
:10009000CFEFD0E1DEBFCDBF13E0A0E0B1E0E4EDF3
:1000A000F7E100E00BBF02C007900D92A43BB1073F
:1000B000D9F70E94B4020C94E80B0C9400001F9234
:1000C0000F920FB60F920BB60F921124EF92FF9280
:1000D0001F932F933F934F935F936F937F938F93D0
:1000E0009F93AF93BF93EF93FF93DF93CF93CDB7DE
:1000F000DEB7A297DEBFCDBFDE011196E0E0F1E0F2
:1001000081E101900D928150E1F7DE015296E1E12B
:10011000F1E081E101900D928150E1F788E1BE01AB
:100120006F5F7F4F0E94C60410E088ECE82EF12C30
:100130000E94DD0280E991E0F7013197F1F7019724
:10014000D9F70E94E00288EE93E0F7013197F1F7CA
:100150000197D9F71F5F1A3059F70E94DD0280E13D
:1001600097E228EC30E0F9013197F1F70197D9F7E0
:100170000E94E00288E1BE016E5E7F4F0E94C604CD
:10018000A296DEBFCDBFCF91DF91FF91EF91BF91DE
:10019000AF919F918F917F916F915F914F913F911F
:1001A0002F911F91FF90EF900F900BBE0F900FBEFD
:1001B0000F901F9018951F920F920FB60F920BB6CB
:1001C0000F921124CF92DF92EF92FF920F931F9321
:1001D0002F933F934F935F936F937F938F939F934F
:1001E000AF93BF93EF93FF93DF93CF93CDB7DEB77A
:1001F000A197DEBFCDBFDE015196E1E1F1E081E1E3
:1002000001900D928150E1F7DE011196E8ECF1E0EA
:1002100080E101900D928150E1F78E010F5F1F4F39
:1002200028ECC22ED12C9BE0E92EF12CEC0EFD1E09
:10023000F801808191810E94130580E197E2F60127
:100240003197F1F70197D9F70E5F1F4F0E151F0574
:1002500079F788E1BE016F5E7F4F0E94C604A196C8
:10026000DEBFCDBFCF91DF91FF91EF91BF91AF91F5
:100270009F918F917F916F915F914F913F912F91BE
:100280001F910F91FF90EF90DF90CF900F900BBEDA
:100290000F900FBE0F901F9018951F920F920FB6E0
:1002A0000F920BB60F921124CF92DF92EF92FF9232
:1002B0000F931F932F933F934F935F936F937F936E
:1002C0008F939F93AF93BF93EF93FF93DF93CF935E
:1002D000CDB7DEB76E97DEBFCDBFDE011196E2E28D
:1002E000F1E08DE001900D928150E1F7DE011E9664
:1002F000E1E1F1E081E101900D928150E1F788E1C7
:10030000BE016F5F7F4F0E94C604EE24FF2430EDD4
:10031000C32E37E0D32E19C0C7016AE070E041E078
:1003200050E00E94B403C6010197F1F7C60101979E
:10033000F1F70F5F1F4F0431110571F70894E11CAD
:10034000F11C82E3E816F10419F000E010E0E4CFBC
:1003500088E1BE01625F7F4F0E94C6046E96DEBFD9
:10036000CDBFCF91DF91FF91EF91BF91AF919F9161
:100370008F917F916F915F914F913F912F911F913D
:100380000F91FF90EF90DF90CF900F900BBE0F90EA
:100390000FBE0F901F9018951F920F920FB60F92DD
:1003A0000BB60F9211246F927F928F929F92AF9211
:1003B000BF92CF92DF92EF92FF920F931F932F93F2
:1003C0003F934F935F936F937F938F939F93AF93DD
:1003D000BF93EF93FF93DF93CF93CDB7DEB7A29791
:1003E000DEBFCDBFDE011196EFE2F1E081E10190C9
:1003F0000D928150E1F7DE015296E1E1F1E081E1F9
:1004000001900D928150E1F788E1BE016F5F7F4F4F
:100410000E94C60458ED852E51E0952E48EC642EBE
:10042000712CF40180810E947C05F401618172814C
:10043000882777FD8095982F0E94E3085B016C0167
:1004400020E030E04AEF54E40E9459077B018C0120
:1004500020E030E040E85FE30E94B30888231CF40A
:1004600061E070E022C0C801B70120E03FEF4FE734
:1004700057E40E9453081816A4F4C601B50120E001
:1004800030E040E251E40E9459070E94830505C014
:10049000C3010197F1F76150704061157105C1F713
:1004A00007C0C801B7010E948305CB010197F1F78E
:1004B00083E090E0880E991E98E3891692E09906F1
:1004C00009F0AFCF8FEF0E947C0588E1BE016E5E20
:1004D0007F4F0E94C604A296DEBFCDBFCF91DF91B1
:1004E000FF91EF91BF91AF919F918F917F916F910C
:1004F0005F914F913F912F911F910F91FF90EF903E
:10050000DF90CF90BF90AF909F908F907F906F9033
:100510000F900BBE0F900FBE0F901F9018959FEF7E
:1005200097BBA59AAD9A98BBAD98E4E6F0E08081C0
:1005300088608083808180618083E5E6F0E080814F
:100540008860808380818F7E808397BB18BA80818A
:10055000877F808380818061808398BB80818F7E4C
:100560008083139A1B9A08950E948F020E94BA04F6
:1005700080E06EE372E00E94C60480E16FE472E006
:100580000E94C60488E060E672E00E94C60488E12A
:1005900061E772E00E94C60480B58C7F80BD82B1A5
:1005A0008F7082B983B1806F83B99FEF9ABF98BF74
:1005B00089B7806F89BF7894F9CF139A1B980895F3
:1005C000139A1B9A0895843321F1853360F48133A3
:1005D000C1F0823318F4803341F515C08233A9F09D
:1005E000833319F514C08733D1F0883328F4853369
:1005F00091F08633D1F411C0883399F08933A9F48E
:1006000012C089EF089580EC089584EA089580EB84
:10061000089589E9089582E9089582E8089588EFA8
:10062000089580E8089580E908958FEF089518BA35
:100630008FEF87BBE5E6F0E080811082E4E6F0E032
:100640008081886180830895AF92BF92CF92DF92BC
:10065000EF92FF920F931F93FB0118BA2FEF27BB66
:10066000209165001092650020916400286120931C
:100670006400209165002061209365002091650051
:10068000277F20936500EE57FD4F208128BB2091E6
:100690006500286020936500209165002F7E2093DF
:1006A000650027E030E0281B390B81E090E002C0B4
:1006B000880F991F2A95E2F788BB80916500877F94
:1006C00080936500809165008F7E8093650066272A
:1006D00057FD6095762FCB01BA010E94E3085B01BC
:1006E0006C0120E030E04AEF54E40E9459077B019E
:1006F0008C0120E030E040E85FE30E94B3088823EB
:100700001CF461E070E024C0C801B70120E03FEFB5
:100710004FE757E40E9453081816B4F4C601B50118
:1007200020E030E040E251E40E9459070E94830536
:1007300088EC90E005C0FC013197F1F76150704002
:1007400061157105C1F707C0C801B7010E94830593
:10075000CB010197F1F71F910F91FF90EF90DF9080
:10076000CF90BF90AF9008952F923F924F925F929B
:100770006F927F928F929F92AF92BF92CF92DF92B1
:10078000EF92FF920F931F93DF93CF9300D000D08F
:1007900000D0CDB7DEB77A8369835C834B834C018D
:1007A000662477241E821D821A01442437FC40945B
:1007B000542C8D819E81019709F040C0C201B10186
:1007C0000E94E3085B016C0120E030E04AEF54E452
:1007D0000E9459077B018C0120E030E040E85FE394
:1007E0000E94B30888231CF461E070E023C0C801B4
:1007F000B70120E03FEF4FE757E40E945308181677
:10080000ACF4C601B50120E030E040E251E40E94C2
:1008100059070E94830506C088EC90E00197F1F724
:100820006150704061157105B9F725C0C801B70165
:100830000E948305CB010197F1F71DC0C4016981B6
:100840007A810E948A0BBC01C3014B815C810E94AA
:100850002403C40169817A810E948A0B61157105A4
:1008600021F04B011E821D8206C088249924E1E0FC
:10087000F0E0FE83ED830894611C711CF7E06F16B5
:10088000710409F096CF26960FB6F894DEBF0FBE1E
:10089000CDBFCF91DF911F910F91FF90EF90DF902F
:1008A000CF90BF90AF909F908F907F906F905F9010
:1008B0004F903F902F900895E4E6F0E0908198608B
:1008C0009083908190619083E5E6F0E0908198605C
:1008D000908390819F7E90839FEF97BB70E06150E3
:1008E000704021E030E002C0220F331F6A95E2F72A
:1008F00028BB9081977F908390819061908388BB83
:1009000080818F7E8083089517BA9598969A979ADA
:1009100088EB9BE0B79B04C0009711F00197FACFDA
:1009200097988FEF87BB08951F93182F0E94840418
:1009300095989698979A80EA9FE00197F1F718BBEF
:10094000979880E197E20197F1F71F9108951F931F
:10095000182F0E948404959A9698979A80EA9FE0AF
:100960000197F1F718BB979880E197E20197F1F7AB
:100970001F91089518BA8FEF87BB12BA81B3806EAA
:1009800081BB80E395E70197F1F70895EF92FF921D
:100990001F93CF93DF93182F7B01883049F0893064
:1009A00018F4882329F01DC0803111F08831C9F472
:1009B00080E30E9494048CE00E949404812F80685C
:1009C0000E949404C0E0D0E006C00E94A7042196D3
:1009D000C031D10531F0F701EC0FFD1F8081882374
:1009E000A1F7DF91CF911F91FF90EF9008950F93A2
:1009F0001F938C0180E0B8010E94C604005F1F4F66
:100A000080E1B8010E94C604005F1F4F88E0B80172
:100A10000E94C604005F1F4F88E1B8010E94C6040F
:100A20001F910F910895CF93DF932091A5023091EC
:100A3000A6023093A4022093A3022091A702309132
:100A4000A8023093A6022093A5022091A90230911A
:100A5000AA023093A8022093A7029093AA0280933F
:100A6000A90280E80E949404C0E0D0E0E091A302D3
:100A7000F091A402EC0FFD1F80810E94A704219633
:100A8000C031D10599F780E90E949404C0E0D0E01C
:100A9000E091A502F091A602EC0FFD1F80810E945B
:100AA000A7042196C031D10599F788E80E949404E3
:100AB000C0E0D0E0E091A702F091A802EC0FFD1F8A
:100AC00080810E94A7042196C031D10599F788E959
:100AD0000E949404C0E0D0E0E091A902F091AA0243
:100AE000EC0FFD1F80810E94A7042196C031D10523
:100AF00099F7DF91CF910895A59AAD9A9FEF97BB93
:100B000088BBAD980895EF92FF920F931F937B01DE
:100B10008C0120E030E040E05FE40E9483088823FD
:100B20008CF0C801B70120E030E040E05FE40E94B3
:100B3000FB060E9441099B01AC012050304040401F
:100B4000504806C0C801B7010E9441099B01AC0191
:100B5000B901CA011F910F91FF90EF900895A0E095
:100B6000B0E0E5EBF5E00C94B10BDC012B01FA01F0
:100B70009C91923008F439C1EB018881823008F4ED
:100B800033C1943069F4843009F02FC111969C91DF
:100B900011978981981709F428C1ABEAB2E025C101
:100BA000843009F421C18230A9F4923009F01DC1CA
:100BB0009A01AD0188E0EA010990AE01E9010992CC
:100BC0009E018150C1F7E201898111969C91892390
:100BD000818308C1923009F407C112962D903C9090
:100BE0001397EB018A819B811496AD90BD90CD90B7
:100BF000DC901797EC80FD800E811F819101281BEE
:100C0000390BB90137FF04C066277727621B730BC6
:100C1000603271050CF061C0121613066CF53701D5
:100C20004801062E04C096948794779467940A949A
:100C3000D2F721E030E040E050E004C0220F331F43
:100C4000441F551F6A95D2F7215030404040504014
:100C50002E213F2140235123211531054105510506
:100C600021F021E030E040E050E079018A01E628FF
:100C7000F728082919293CC0232BD1F1260E371E4D
:100C800035014601062E04C09694879477946794A4
:100C90000A94D2F721E030E040E050E004C0220F97
:100CA000331F441F551F6A95D2F7215030404040F2
:100CB00050402A213B214C215D2121153105410560
:100CC000510521F021E030E040E050E059016A0197
:100CD000A628B728C828D9280BC0821593052CF060
:100CE0001C01AA24BB24650103C0EE24FF24870154
:100CF00011969C91D20111968C91981709F445C0D8
:100D0000992339F0A80197012A193B094C095D097B
:100D100006C0A60195012E193F09400B510B57FD46
:100D200008C011823382228224833583468357830D
:100D30001DC081E081833382228288279927DC01CC
:100D4000821B930BA40BB50B84839583A683B78377
:100D50000DC0220F331F441F551F24833583468344
:100D60005783828193810197938382832481358184
:100D700046815781DA01C9010197A109B1098F5F45
:100D80009F4FAF4FBF4328F30BC091833382228222
:100D9000EA0CFB1C0C1D1D1DE482F58206831783E3
:100DA00083E08083248135814681578157FF1AC0B3
:100DB000C901AA2797FDA095BA2F81709070A070E5
:100DC000B0705695479537952795822B932BA42B7A
:100DD000B52B84839583A683B78382819381019603
:100DE00093838283DF0101C0D201CD01CDB7DEB78D
:100DF000E2E10C94CD0BA0E2B0E0E1E0F7E00C946E
:100E0000BD0B69837A838B839C832D833E834F83C1
:100E10005887E9E0EE2EF12CEC0EFD1ECE01019676
:100E2000B7010E94B90A8E010F5E1F4FCE010596D1
:100E3000B8010E94B90A8A8991E089278A8BC70183
:100E4000B801AE01475E5F4F0E94AF050E94E40902
:100E5000A096E6E00C94D90BA0E2B0E0E2E3F7E064
:100E60000C94BD0B69837A838B839C832D833E8393
:100E70004F835887F9E0EF2EF12CEC0EFD1ECE01CA
:100E80000196B7010E94B90A8E010F5E1F4FCE0175
:100E90000596B8010E94B90AC701B801AE01475EC4
:100EA0005F4F0E94AF050E94E409A096E6E00C9413
:100EB000D90BA0E2B0E0EFE5F7E00C94B10B698349
:100EC0007A838B839C832D833E834F835887CE0107
:100ED0000196BE01675F7F4F0E94B90ACE01059659
:100EE000BE016F5E7F4F0E94B90A9985923088F0EB
:100EF00089898230C8F0943019F4823051F404C0EA
:100F0000843029F4923081F48BEA92E0C6C09230AA
:100F100049F420E09A858A89981321E02A87CE0136
:100F20000996BBC0823049F420E09A858A899813DB
:100F300021E02A8BCE014196B0C02D843E844F849F
:100F400058886D887E888F88988CEE24FF248701CE
:100F5000AA24BB24650140E050E060E070E0E0E0DE
:100F6000F0E0C10181709070892BE9F0E60CF71C6C
:100F7000081D191D9A01AB012A0D3B1D4C1D5D1D5D
:100F800080E090E0A0E0B0E0E614F7040805190561
:100F900020F481E090E0A0E0B0E0BA01A901480FA0
:100FA000591F6A1F7B1FAA0CBB1CCC1CDD1C97FEA3
:100FB00008C081E090E0A0E0B0E0A82AB92ACA2ADF
:100FC000DB2A3196E032F10549F0660C771C881C6B
:100FD000991C5694479437942794C3CFFA85EA898D
:100FE0002B893C898B859C85280F391F2E5F3F4FAD
:100FF00017C0CA0181709070892B61F01695079512
:10100000F794E79480E090E0A0E0B0E8E82AF92ABD
:101010000A2B1B2B76956795579547952F5F3F4F6A
:1010200077FDE7CF0CC0440F551F661F771F17FDD4
:101030004160EE0CFF1C001F111F2150304040305A
:1010400090E0590790E0690790E4790760F32B8FEF
:101050003C8FDB01CA018F779070A070B070803434
:101060009105A105B10561F447FD0AC0E114F10441
:101070000105110529F0405C5F4F6F4F7F4F4078AD
:101080001A8EFE1711F081E08A8F4D8F5E8F6F8F61
:1010900078A383E0898FCE0149960E94E409A09647
:1010A000E2E10C94CD0BA8E1B0E0E9E5F8E00C94A6
:1010B000BD0B69837A838B839C832D833E834F830F
:1010C000588789E0E82EF12CEC0EFD1ECE0101962A
:1010D000B7010E94B90A8E010F5E1F4FCE0105961F
:1010E000B8010E94B90A8985823040F0898982302E
:1010F00028F0C701B8010E94310B01C08FEF68963C
:10110000E6E00C94D90BA8E1B0E0E9E8F8E00C9433
:10111000BD0B69837A838B839C832D833E834F83AE
:10112000588789E0E82EF12CEC0EFD1ECE010196C9
:10113000B7010E94B90A8E010F5E1F4FCE010596BE
:10114000B8010E94B90A8985823040F089898230CD
:1011500028F0C701B8010E94310B01C08FEF6896DB
:10116000E6E00C94D90BA8E1B0E0E9EBF8E00C94D0
:10117000BD0B69837A838B839C832D833E834F834E
:10118000588789E0E82EF12CEC0EFD1ECE01019669
:10119000B7010E94B90A8E010F5E1F4FCE0105965E
:1011A000B8010E94B90A8985823040F0898982306D
:1011B00028F0C701B8010E94310B01C081E0689698
:1011C000E6E00C94D90BA8E0B0E0E9EEF8E00C946E
:1011D000BA0B9B01AC0183E08983DA01C90188273E
:1011E000B7FD83959927AA27BB27B82E211531056E
:1011F0004105510519F482E089833AC08823A9F09A
:10120000203080E0380780E0480780E8580729F45C
:1012100060E070E080E09FEC30C0EE24FF248701A6
:10122000E21AF30A040B150B02C079018A018EE160
:10123000C82ED12CDC82CB82ED82FE820F831887F0
:10124000C801B7010E94950901971816190684F480
:10125000082E04C0EE0CFF1C001F111F0A94D2F7C9
:10126000ED82FE820F831887C81AD90ADC82CB82EE
:10127000BA82CE0101960E94E4092896E9E00C9416
:10128000D60BACE0B0E0E7E4F9E00C94C10B698365
:101290007A838B839C83CE010196BE016B5F7F4F67
:1012A0000E94B90A8D81823061F1823050F1843020
:1012B00021F48E81882351F12EC02F81388537FD8E
:1012C00020C06E812F3131051CF06623F9F023C058
:1012D0008EE190E0821B930B29853A854B855C85D6
:1012E00004C056954795379527958A95D2F766237A
:1012F000B1F050954095309521953F4F4F4F5F4F3E
:101300000EC020E030E040E050E009C02FEF3FEF9A
:101310004FEF5FE704C020E030E040E050E8B90163
:10132000CA012C96E2E00C94DD0BEF92FF920F9332
:101330001F937B018C0180E0E81680E0F80681E0D5
:10134000080780E0180788F48FEFE816F10401051C
:10135000110531F028F088E090E0A0E0B0E017C07F
:1013600080E090E0A0E0B0E012C080E0E81680E00D
:10137000F80680E0080781E0180728F088E190E08F
:10138000A0E0B0E004C080E190E0A0E0B0E020E2A6
:1013900030E040E050E0281B390B4A0B5B0B04C0E7
:1013A00016950795F794E7948A95D2F7F701ED54CF
:1013B000FD4F8081281B310941095109C9011F9145
:1013C0000F91FF90EF900895DF92EF92FF920F93AD
:1013D0001F93FC01E480F58006811781D180808114
:1013E000823048F480E090E0A0E1B0E0E82AF92AF9
:1013F0000A2B1B2BA5C0843009F49FC0823021F436
:10140000EE24FF24870105C0E114F1040105110554
:1014100019F4E0E0F0E096C0628173819FEF6238DA
:1014200079070CF05BC022E83FEF261B370B2A310F
:1014300031052CF020E030E040E050E02AC0B80157
:10144000A701022E04C076956795579547950A9493
:10145000D2F781E090E0A0E0B0E004C0880F991FCF
:10146000AA1FBB1F2A95D2F70197A109B1098E21A6
:101470009F21A023B1230097A105B10521F081E0B0
:1014800090E0A0E0B0E09A01AB01282B392B4A2B69
:101490005B2BDA01C9018F779070A070B070803437
:1014A0009105A105B10539F427FF09C0205C3F4F24
:1014B0004F4F5F4F04C0215C3F4F4F4F5F4FE0E005
:1014C000F0E02030A0E03A07A0E04A07A0E45A0785
:1014D00010F0E1E0F0E079018A0127C06038710581
:1014E00064F5FB01E158FF4FD801C7018F77907079
:1014F000A070B07080349105A105B10539F4E7FE04
:101500000DC080E490E0A0E0B0E004C08FE390E084
:10151000A0E0B0E0E80EF91E0A1F1B1F17FF05C070
:1015200016950795F794E794319687E016950795F9
:10153000F794E7948A95D1F705C0EE24FF2487013C
:10154000EFEFF0E06E2F679566276795902F9F77F6
:10155000D794DD24D7948E2F8695492F462B582F6C
:101560005D29B701CA011F910F91FF90EF90DF90A5
:101570000895FC01DB01408151812281622F6F7748
:1015800070E0221F2227221F9381892F880F822B30
:10159000282F30E0991F9927991F11969C93119736
:1015A00021153105A9F5411551056105710511F4A4
:1015B00082E037C082E89FEF13969C938E93129738
:1015C0009A01AB0167E0220F331F441F551F6A9534
:1015D000D1F783E08C930DC0220F331F441F551F9A
:1015E00012968D919C911397019713969C938E93CD
:1015F0001297203080E0380780E0480780E45807E1
:1016000058F314962D933D934D935C93179708953B
:101610002F3F310579F4411551056105710519F424
:1016200084E08C93089564FF03C081E08C9312C022
:101630001C9210C02F57304013963C932E93129754
:1016400083E08C9387E0440F551F661F771F8A95B0
:10165000D1F7706414964D935D936D937C931797B7
:1016600008951F93DC01FB019C91923008F447C060
:101670008081823008F443C0943051F411961C915B
:10168000843099F58181682F70E0611B71093FC03A
:10169000843021F0923031F48230B9F18181882395
:1016A00089F12DC011961C9111978230F1F0818142
:1016B0001817D9F412962D913C911397828193813A
:1016C0008217930794F028173907BCF014968D9170
:1016D0009D910D90BC91A02D24813581468157812B
:1016E000281739074A075B0718F4112341F00AC08D
:1016F00082179307A407B50740F4112319F061E09E
:1017000070E005C06FEF7FEF02C060E070E0CB01DA
:101710001F91089597FB092E07260AD077FD04D064
:101720000CD006D000201AF4709561957F4F089573
:10173000F6F7909581959F4F0895AA1BBB1B51E129
:1017400007C0AA1FBB1FA617B70710F0A61BB70B31
:10175000881F991F5A95A9F780959095BC01CD01D6
:1017600008952F923F924F925F926F927F928F9245
:101770009F92AF92BF92CF92DF92EF92FF920F9320
:101780001F93CF93DF93CDB7DEB7CA1BDB0B0FB62A
:10179000F894DEBF0FBECDBF09942A8839884888E7
:1017A0005F846E847D848C849B84AA84B984C8847D
:1017B000DF80EE80FD800C811B81AA81B981CE0F74
:1017C000D11D0FB6F894DEBF0FBECDBFED01089559
:0417D000F894FFCFBB
:1017D40020202020494E5437B4A5B7A22020202031
:1017E40000202020323031312D30362D3031202070
:1017F400200020202020494E5435B4A5B7A2002053
:10180400202020494E5434B4A5B7A2202020200023
:101814006164616477202020202020202020202063
:10182400004C43443132383634D2BABEA7B2E2CA8D
:10183400D40020202020BCC6CBE3BBFA20202020EB
:101844002020002020BFC6D1A7D3EBBCBCCAF5CF53
:10185400B52020002020686168686168686868684D
:10186400686820200020206861686861616161689F
:10187400686868202000202066666666666666667C
:101884006666666620200020206464646464646480
:1018940064646464642020004001510162017301A6
:1018A40084019501A601B701006400012C010264C2
:1018B4000003640004640005640006640007640017
:1018C4000864000964000A64000B2C010C64000D18
:1018D40064000E64000F64000F6400006400102CA8
:1018E40001206400306400406400506400606400BF
:1018F400706400806400906400A06400B02C01C097
:101904006400D06400E06400F06400F0640020200F
:10191400CEF7B0B2BDBBCDA8B4F3D1A7202000410F
:10192400546D65676131323820B5A5C6ACBBFA0089
:101934002020CDE2B2BFD6D0B6CFD1DDCABE2020A2
:1019440000202020323031312D30362D303120200E
:101954002000C0F9A4B0999282F880908883C6A12F
:10196400868E20202020202020202020202020209F
:1019740020200092029202920292020000000000D3
:10198400000000000102020303030304040404042E
:1019940004040405050505050505050505050505F6
:1019A40005050506060606060606060606060606D6
:1019B40006060606060606060606060606060606C3
:1019C40006060607070707070707070707070707A6
:1019D4000707070707070707070707070707070793
:1019E4000707070707070707070707070707070783
:1019F4000707070707070707070707070707070773
:101A04000707070808080808080808080808080855
:101A14000808080808080808080808080808080842
:101A24000808080808080808080808080808080832
:101A34000808080808080808080808080808080822
:101A44000808080808080808080808080808080812
:101A54000808080808080808080808080808080802
:101A640008080808080808080808080808080808F2
:101A740008080808080808080808080808080808E2
:041A84000808080046
:00000001FF
